{
  "_format": "hh-sol-artifact-1",
  "contractName": "LeoToken",
  "sourceName": "contracts/LeoToken.sol",
  "abi": [
    {
      "inputs": [],
      "stateMutability": "nonpayable",
      "type": "constructor"
    },
    {
      "anonymous": false,
      "inputs": [
        {
          "indexed": true,
          "internalType": "address",
          "name": "_owner",
          "type": "address"
        },
        {
          "indexed": true,
          "internalType": "address",
          "name": "_spender",
          "type": "address"
        },
        {
          "indexed": false,
          "internalType": "uint256",
          "name": "_value",
          "type": "uint256"
        }
      ],
      "name": "Approval",
      "type": "event"
    },
    {
      "anonymous": false,
      "inputs": [
        {
          "indexed": true,
          "internalType": "address",
          "name": "_from",
          "type": "address"
        },
        {
          "indexed": true,
          "internalType": "address",
          "name": "_to",
          "type": "address"
        },
        {
          "indexed": false,
          "internalType": "uint256",
          "name": "_value",
          "type": "uint256"
        }
      ],
      "name": "Transfer",
      "type": "event"
    },
    {
      "inputs": [
        {
          "internalType": "address",
          "name": "",
          "type": "address"
        },
        {
          "internalType": "address",
          "name": "",
          "type": "address"
        }
      ],
      "name": "allowance",
      "outputs": [
        {
          "internalType": "uint256",
          "name": "",
          "type": "uint256"
        }
      ],
      "stateMutability": "view",
      "type": "function"
    },
    {
      "inputs": [
        {
          "internalType": "address",
          "name": "_spender",
          "type": "address"
        },
        {
          "internalType": "uint256",
          "name": "_value",
          "type": "uint256"
        }
      ],
      "name": "approve",
      "outputs": [
        {
          "internalType": "bool",
          "name": "",
          "type": "bool"
        }
      ],
      "stateMutability": "nonpayable",
      "type": "function"
    },
    {
      "inputs": [
        {
          "internalType": "address",
          "name": "",
          "type": "address"
        }
      ],
      "name": "balanceOf",
      "outputs": [
        {
          "internalType": "uint256",
          "name": "",
          "type": "uint256"
        }
      ],
      "stateMutability": "view",
      "type": "function"
    },
    {
      "inputs": [],
      "name": "buy",
      "outputs": [
        {
          "internalType": "uint256",
          "name": "",
          "type": "uint256"
        }
      ],
      "stateMutability": "payable",
      "type": "function"
    },
    {
      "inputs": [],
      "name": "decimals",
      "outputs": [
        {
          "internalType": "uint8",
          "name": "",
          "type": "uint8"
        }
      ],
      "stateMutability": "view",
      "type": "function"
    },
    {
      "inputs": [],
      "name": "ethRate",
      "outputs": [
        {
          "internalType": "uint8",
          "name": "",
          "type": "uint8"
        }
      ],
      "stateMutability": "view",
      "type": "function"
    },
    {
      "inputs": [],
      "name": "name",
      "outputs": [
        {
          "internalType": "string",
          "name": "",
          "type": "string"
        }
      ],
      "stateMutability": "view",
      "type": "function"
    },
    {
      "inputs": [],
      "name": "owner",
      "outputs": [
        {
          "internalType": "address",
          "name": "",
          "type": "address"
        }
      ],
      "stateMutability": "view",
      "type": "function"
    },
    {
      "inputs": [],
      "name": "symbol",
      "outputs": [
        {
          "internalType": "string",
          "name": "",
          "type": "string"
        }
      ],
      "stateMutability": "view",
      "type": "function"
    },
    {
      "inputs": [],
      "name": "totalSupply",
      "outputs": [
        {
          "internalType": "uint256",
          "name": "",
          "type": "uint256"
        }
      ],
      "stateMutability": "view",
      "type": "function"
    },
    {
      "inputs": [
        {
          "internalType": "address",
          "name": "_to",
          "type": "address"
        },
        {
          "internalType": "uint256",
          "name": "_value",
          "type": "uint256"
        }
      ],
      "name": "transfer",
      "outputs": [
        {
          "internalType": "bool",
          "name": "",
          "type": "bool"
        }
      ],
      "stateMutability": "nonpayable",
      "type": "function"
    },
    {
      "inputs": [
        {
          "internalType": "address",
          "name": "_from",
          "type": "address"
        },
        {
          "internalType": "address",
          "name": "_to",
          "type": "address"
        },
        {
          "internalType": "uint256",
          "name": "_value",
          "type": "uint256"
        }
      ],
      "name": "transferFrom",
      "outputs": [
        {
          "internalType": "bool",
          "name": "",
          "type": "bool"
        }
      ],
      "stateMutability": "nonpayable",
      "type": "function"
    },
    {
      "inputs": [
        {
          "internalType": "address",
          "name": "",
          "type": "address"
        }
      ],
      "name": "vesting",
      "outputs": [
        {
          "internalType": "uint256",
          "name": "unblockTime",
          "type": "uint256"
        },
        {
          "internalType": "uint256",
          "name": "tokens",
          "type": "uint256"
        }
      ],
      "stateMutability": "view",
      "type": "function"
    },
    {
      "inputs": [],
      "name": "vestingPeriod",
      "outputs": [
        {
          "internalType": "uint32",
          "name": "",
          "type": "uint32"
        }
      ],
      "stateMutability": "view",
      "type": "function"
    },
    {
      "inputs": [],
      "name": "withdrawToOwner",
      "outputs": [],
      "stateMutability": "nonpayable",
      "type": "function"
    }
  ],
  "bytecode": "0x60806040526040518060400160405280600d81526020017f4c656f636f646520546f6b656e00000000000000000000000000000000000000815250600090805190602001906200005192919062000165565b506040518060400160405280600381526020017f4c454f0000000000000000000000000000000000000000000000000000000000815250600190805190602001906200009f92919062000165565b506012600260006101000a81548160ff021916908360ff16021790555069152d02c7e14af6800000600355348015620000d757600080fd5b5033600460006101000a81548173ffffffffffffffffffffffffffffffffffffffff021916908373ffffffffffffffffffffffffffffffffffffffff160217905550600354600560003073ffffffffffffffffffffffffffffffffffffffff1673ffffffffffffffffffffffffffffffffffffffff168152602001908152602001600020819055506200027a565b828054620001739062000215565b90600052602060002090601f016020900481019282620001975760008555620001e3565b82601f10620001b257805160ff1916838001178555620001e3565b82800160010185558215620001e3579182015b82811115620001e2578251825591602001919060010190620001c5565b5b509050620001f29190620001f6565b5090565b5b8082111562000211576000816000905550600101620001f7565b5090565b600060028204905060018216806200022e57607f821691505b602082108114156200024557620002446200024b565b5b50919050565b7f4e487b7100000000000000000000000000000000000000000000000000000000600052602260045260246000fd5b6119df806200028a6000396000f3fe6080604052600436106100e85760003560e01c80637313ee5a1161008a578063a9059cbb11610059578063a9059cbb146102db578063d2d93f9014610318578063dd62ed3e14610343578063e388c42314610380576100e8565b80637313ee5a1461023c5780638da5cb5b1461026757806395d89b4114610292578063a6f2ae3a146102bd576100e8565b806323b872dd116100c657806323b872dd14610180578063313ce567146101bd5780633cb40e16146101e857806370a08231146101ff576100e8565b806306fdde03146100ed578063095ea7b31461011857806318160ddd14610155575b600080fd5b3480156100f957600080fd5b506101026103be565b60405161010f91906113de565b60405180910390f35b34801561012457600080fd5b5061013f600480360381019061013a9190611198565b61044c565b60405161014c91906113c3565b60405180910390f35b34801561016157600080fd5b5061016a6105b0565b6040516101779190611500565b60405180910390f35b34801561018c57600080fd5b506101a760048036038101906101a29190611149565b6105b6565b6040516101b491906113c3565b60405180910390f35b3480156101c957600080fd5b506101d26108a2565b6040516101df919061155f565b60405180910390f35b3480156101f457600080fd5b506101fd6108b5565b005b34801561020b57600080fd5b50610226600480360381019061022191906110e4565b610a16565b6040516102339190611500565b60405180910390f35b34801561024857600080fd5b50610251610a2e565b60405161025e9190611544565b60405180910390f35b34801561027357600080fd5b5061027c610a33565b60405161028991906113a8565b60405180910390f35b34801561029e57600080fd5b506102a7610a59565b6040516102b491906113de565b60405180910390f35b6102c5610ae7565b6040516102d29190611500565b60405180910390f35b3480156102e757600080fd5b5061030260048036038101906102fd9190611198565b610d3a565b60405161030f91906113c3565b60405180910390f35b34801561032457600080fd5b5061032d610ed3565b60405161033a919061155f565b60405180910390f35b34801561034f57600080fd5b5061036a6004803603810190610365919061110d565b610ed8565b6040516103779190611500565b60405180910390f35b34801561038c57600080fd5b506103a760048036038101906103a291906110e4565b610efd565b6040516103b592919061151b565b60405180910390f35b600080546103cb9061171d565b80601f01602080910402602001604051908101604052809291908181526020018280546103f79061171d565b80156104445780601f1061041957610100808354040283529160200191610444565b820191906000526020600020905b81548152906001019060200180831161042757829003601f168201915b505050505081565b600082600073ffffffffffffffffffffffffffffffffffffffff168173ffffffffffffffffffffffffffffffffffffffff1614156104bf576040517f08c379a00000000000000000000000000000000000000000000000000000000081526004016104b690611440565b60405180910390fd5b82600660003373ffffffffffffffffffffffffffffffffffffffff1673ffffffffffffffffffffffffffffffffffffffff16815260200190815260200160002060008673ffffffffffffffffffffffffffffffffffffffff1673ffffffffffffffffffffffffffffffffffffffff168152602001908152602001600020819055508373ffffffffffffffffffffffffffffffffffffffff163373ffffffffffffffffffffffffffffffffffffffff167f8c5be1e5ebec7d5bd14f71427d1e84f3dd0314c0f7b2291e5b200ac8c7c3b9258560405161059d9190611500565b60405180910390a3600191505092915050565b60035481565b600082600073ffffffffffffffffffffffffffffffffffffffff168173ffffffffffffffffffffffffffffffffffffffff161415610629576040517f08c379a000000000000000000000000000000000000000000000000000000000815260040161062090611440565b60405180910390fd5b6106338584610f21565b82600660008773ffffffffffffffffffffffffffffffffffffffff1673ffffffffffffffffffffffffffffffffffffffff16815260200190815260200160002060008673ffffffffffffffffffffffffffffffffffffffff1673ffffffffffffffffffffffffffffffffffffffff1681526020019081526020016000205410156106f2576040517f08c379a00000000000000000000000000000000000000000000000000000000081526004016106e990611400565b60405180910390fd5b82600560008773ffffffffffffffffffffffffffffffffffffffff1673ffffffffffffffffffffffffffffffffffffffff16815260200190815260200160002060008282546107419190611651565b9250508190555082600560008673ffffffffffffffffffffffffffffffffffffffff1673ffffffffffffffffffffffffffffffffffffffff168152602001908152602001600020600082825461079791906115a1565b9250508190555082600660008773ffffffffffffffffffffffffffffffffffffffff1673ffffffffffffffffffffffffffffffffffffffff16815260200190815260200160002060008673ffffffffffffffffffffffffffffffffffffffff1673ffffffffffffffffffffffffffffffffffffffff168152602001908152602001600020600082825461082a9190611651565b925050819055508373ffffffffffffffffffffffffffffffffffffffff168573ffffffffffffffffffffffffffffffffffffffff167fddf252ad1be2c89b69c2b068fc378daa952ba7f163c4a11628f55a4df523b3ef8560405161088e9190611500565b60405180910390a360019150509392505050565b600260009054906101000a900460ff1681565b600460009054906101000a900473ffffffffffffffffffffffffffffffffffffffff1673ffffffffffffffffffffffffffffffffffffffff163373ffffffffffffffffffffffffffffffffffffffff1614610945576040517f08c379a000000000000000000000000000000000000000000000000000000000815260040161093c90611480565b60405180910390fd5b6000600460009054906101000a900473ffffffffffffffffffffffffffffffffffffffff1673ffffffffffffffffffffffffffffffffffffffff164760405161098d90611393565b60006040518083038185875af1925050503d80600081146109ca576040519150601f19603f3d011682016040523d82523d6000602084013e6109cf565b606091505b5050905080610a13576040517f08c379a0000000000000000000000000000000000000000000000000000000008152600401610a0a906114c0565b60405180910390fd5b50565b60056020528060005260406000206000915090505481565b600081565b600460009054906101000a900473ffffffffffffffffffffffffffffffffffffffff1681565b60018054610a669061171d565b80601f0160208091040260200160405190810160405280929190818152602001828054610a929061171d565b8015610adf5780601f10610ab457610100808354040283529160200191610adf565b820191906000526020600020905b815481529060010190602001808311610ac257829003601f168201915b505050505081565b600042600760003373ffffffffffffffffffffffffffffffffffffffff1673ffffffffffffffffffffffffffffffffffffffff168152602001908152602001600020600001541115610b6e576040517f08c379a0000000000000000000000000000000000000000000000000000000008152600401610b65906114a0565b60405180910390fd5b60003411610bb1576040517f08c379a0000000000000000000000000000000000000000000000000000000008152600401610ba8906114e0565b60405180910390fd5b6000606460ff1634610bc391906115f7565b9050600354811115610c0a576040517f08c379a0000000000000000000000000000000000000000000000000000000008152600401610c0190611420565b60405180910390fd5b80600560003373ffffffffffffffffffffffffffffffffffffffff1673ffffffffffffffffffffffffffffffffffffffff1681526020019081526020016000206000828254610c5991906115a1565b9250508190555080600560003073ffffffffffffffffffffffffffffffffffffffff1673ffffffffffffffffffffffffffffffffffffffff1681526020019081526020016000206000828254610caf9190611651565b925050819055506040518060400160405280600063ffffffff1642610cd491906115a1565b815260200182815250600760003373ffffffffffffffffffffffffffffffffffffffff1673ffffffffffffffffffffffffffffffffffffffff16815260200190815260200160002060008201518160000155602082015181600101559050508091505090565b600082600073ffffffffffffffffffffffffffffffffffffffff168173ffffffffffffffffffffffffffffffffffffffff161415610dad576040517f08c379a0000000000000000000000000000000000000000000000000000000008152600401610da490611440565b60405180910390fd5b610db73384610f21565b82600560003373ffffffffffffffffffffffffffffffffffffffff1673ffffffffffffffffffffffffffffffffffffffff1681526020019081526020016000206000828254610e069190611651565b9250508190555082600560008673ffffffffffffffffffffffffffffffffffffffff1673ffffffffffffffffffffffffffffffffffffffff1681526020019081526020016000206000828254610e5c91906115a1565b925050819055508373ffffffffffffffffffffffffffffffffffffffff163373ffffffffffffffffffffffffffffffffffffffff167fddf252ad1be2c89b69c2b068fc378daa952ba7f163c4a11628f55a4df523b3ef85604051610ec09190611500565b60405180910390a3600191505092915050565b606481565b6006602052816000526040600020602052806000526040600020600091509150505481565b60076020528060005260406000206000915090508060000154908060010154905082565b6000600560008473ffffffffffffffffffffffffffffffffffffffff1673ffffffffffffffffffffffffffffffffffffffff16815260200190815260200160002054905042600760008573ffffffffffffffffffffffffffffffffffffffff1673ffffffffffffffffffffffffffffffffffffffff16815260200190815260200160002060000154111561100457600760008473ffffffffffffffffffffffffffffffffffffffff1673ffffffffffffffffffffffffffffffffffffffff1681526020019081526020016000206001015481610ffd9190611651565b9050611072565b6040518060400160405280600081526020016000815250600760003373ffffffffffffffffffffffffffffffffffffffff1673ffffffffffffffffffffffffffffffffffffffff16815260200190815260200160002060008201518160000155602082015181600101559050505b818110156110b5576040517f08c379a00000000000000000000000000000000000000000000000000000000081526004016110ac90611460565b60405180910390fd5b505050565b6000813590506110c98161197b565b92915050565b6000813590506110de81611992565b92915050565b6000602082840312156110f657600080fd5b6000611104848285016110ba565b91505092915050565b6000806040838503121561112057600080fd5b600061112e858286016110ba565b925050602061113f858286016110ba565b9150509250929050565b60008060006060848603121561115e57600080fd5b600061116c868287016110ba565b935050602061117d868287016110ba565b925050604061118e868287016110cf565b9150509250925092565b600080604083850312156111ab57600080fd5b60006111b9858286016110ba565b92505060206111ca858286016110cf565b9150509250929050565b6111dd81611685565b82525050565b6111ec81611697565b82525050565b60006111fd8261157a565b6112078185611590565b93506112178185602086016116ea565b611220816117ad565b840191505092915050565b6000611238601f83611590565b9150611243826117be565b602082019050919050565b600061125b601883611590565b9150611266826117e7565b602082019050919050565b600061127e601a83611590565b915061128982611810565b602082019050919050565b60006112a1601d83611590565b91506112ac82611839565b602082019050919050565b60006112c4602783611590565b91506112cf82611862565b604082019050919050565b60006112e7602983611590565b91506112f2826118b1565b604082019050919050565b600061130a601483611590565b915061131582611900565b602082019050919050565b600061132d600083611585565b915061133882611929565b600082019050919050565b6000611350602483611590565b915061135b8261192c565b604082019050919050565b61136f816116c3565b82525050565b61137e816116cd565b82525050565b61138d816116dd565b82525050565b600061139e82611320565b9150819050919050565b60006020820190506113bd60008301846111d4565b92915050565b60006020820190506113d860008301846111e3565b92915050565b600060208201905081810360008301526113f881846111f2565b905092915050565b600060208201905081810360008301526114198161122b565b9050919050565b600060208201905081810360008301526114398161124e565b9050919050565b6000602082019050818103600083015261145981611271565b9050919050565b6000602082019050818103600083015261147981611294565b9050919050565b60006020820190508181036000830152611499816112b7565b9050919050565b600060208201905081810360008301526114b9816112da565b9050919050565b600060208201905081810360008301526114d9816112fd565b9050919050565b600060208201905081810360008301526114f981611343565b9050919050565b60006020820190506115156000830184611366565b92915050565b60006040820190506115306000830185611366565b61153d6020830184611366565b9392505050565b60006020820190506115596000830184611375565b92915050565b60006020820190506115746000830184611384565b92915050565b600081519050919050565b600081905092915050565b600082825260208201905092915050565b60006115ac826116c3565b91506115b7836116c3565b9250827fffffffffffffffffffffffffffffffffffffffffffffffffffffffffffffffff038211156115ec576115eb61174f565b5b828201905092915050565b6000611602826116c3565b915061160d836116c3565b9250817fffffffffffffffffffffffffffffffffffffffffffffffffffffffffffffffff04831182151516156116465761164561174f565b5b828202905092915050565b600061165c826116c3565b9150611667836116c3565b92508282101561167a5761167961174f565b5b828203905092915050565b6000611690826116a3565b9050919050565b60008115159050919050565b600073ffffffffffffffffffffffffffffffffffffffff82169050919050565b6000819050919050565b600063ffffffff82169050919050565b600060ff82169050919050565b60005b838110156117085780820151818401526020810190506116ed565b83811115611717576000848401525b50505050565b6000600282049050600182168061173557607f821691505b602082108114156117495761174861177e565b5b50919050565b7f4e487b7100000000000000000000000000000000000000000000000000000000600052601160045260246000fd5b7f4e487b7100000000000000000000000000000000000000000000000000000000600052602260045260246000fd5b6000601f19601f8301169050919050565b7f41646472657373206e6f7420616c6c6f77656420746f207472616e7366657200600082015250565b7f4e6f7420656e6f75676820746f6b656e7320746f206275790000000000000000600082015250565b7f4164647265737320307830206973206e6f7420616c6c6f776564000000000000600082015250565b7f4e6f7420656e6f75676820746f6b656e7320746f207472616e73666572000000600082015250565b7f596f752068617665206e6f2072696768747320746f20646f2074686973206f7060008201527f65726174696f6e00000000000000000000000000000000000000000000000000602082015250565b7f596f7527766520616c726561647920626f7567687420746f6b656e73206f6e2060008201527f74686973207765656b0000000000000000000000000000000000000000000000602082015250565b7f4661696c656420746f2073656e64206574686572000000000000000000000000600082015250565b50565b7f4d696e206574682076616c756520746f2062757920746f6b656e73206973203160008201527f2077656900000000000000000000000000000000000000000000000000000000602082015250565b61198481611685565b811461198f57600080fd5b50565b61199b816116c3565b81146119a657600080fd5b5056fea2646970667358221220e86231374088a978de65976409f2fa9075015c33bdaec5262a188b74b145902464736f6c63430008040033",
  "linkReferences": {},
  "deployedLinkReferences": {}
}