{
  "_format": "hh-sol-artifact-1",
  "contractName": "Market",
  "sourceName": "contracts/Market.sol",
  "abi": [
    {
      "inputs": [
        {
          "internalType": "address",
          "name": "_leoToken",
          "type": "address"
        },
        {
          "internalType": "address",
          "name": "_usdtToken",
          "type": "address"
        },
        {
          "internalType": "address",
          "name": "_leoNft",
          "type": "address"
        }
      ],
      "stateMutability": "nonpayable",
      "type": "constructor"
    },
    {
      "inputs": [
        {
          "internalType": "uint256",
          "name": "_tokenId",
          "type": "uint256"
        },
        {
          "internalType": "address",
          "name": "_withToken",
          "type": "address"
        }
      ],
      "name": "buyNft",
      "outputs": [],
      "stateMutability": "nonpayable",
      "type": "function"
    },
    {
      "inputs": [],
      "name": "getAvailableLeo",
      "outputs": [
        {
          "internalType": "uint256",
          "name": "",
          "type": "uint256"
        }
      ],
      "stateMutability": "view",
      "type": "function"
    },
    {
      "inputs": [],
      "name": "getAvailableUsdt",
      "outputs": [
        {
          "internalType": "uint256",
          "name": "",
          "type": "uint256"
        }
      ],
      "stateMutability": "view",
      "type": "function"
    },
    {
      "inputs": [
        {
          "internalType": "address",
          "name": "",
          "type": "address"
        },
        {
          "internalType": "address",
          "name": "",
          "type": "address"
        },
        {
          "internalType": "uint256[]",
          "name": "",
          "type": "uint256[]"
        },
        {
          "internalType": "uint256[]",
          "name": "",
          "type": "uint256[]"
        },
        {
          "internalType": "bytes",
          "name": "",
          "type": "bytes"
        }
      ],
      "name": "onERC1155BatchReceived",
      "outputs": [
        {
          "internalType": "bytes4",
          "name": "",
          "type": "bytes4"
        }
      ],
      "stateMutability": "nonpayable",
      "type": "function"
    },
    {
      "inputs": [
        {
          "internalType": "address",
          "name": "",
          "type": "address"
        },
        {
          "internalType": "address",
          "name": "",
          "type": "address"
        },
        {
          "internalType": "uint256",
          "name": "",
          "type": "uint256"
        },
        {
          "internalType": "uint256",
          "name": "",
          "type": "uint256"
        },
        {
          "internalType": "bytes",
          "name": "",
          "type": "bytes"
        }
      ],
      "name": "onERC1155Received",
      "outputs": [
        {
          "internalType": "bytes4",
          "name": "",
          "type": "bytes4"
        }
      ],
      "stateMutability": "nonpayable",
      "type": "function"
    },
    {
      "inputs": [
        {
          "internalType": "address",
          "name": "",
          "type": "address"
        },
        {
          "internalType": "address",
          "name": "",
          "type": "address"
        }
      ],
      "name": "rate",
      "outputs": [
        {
          "internalType": "uint128",
          "name": "numerator",
          "type": "uint128"
        },
        {
          "internalType": "uint128",
          "name": "denominator",
          "type": "uint128"
        }
      ],
      "stateMutability": "view",
      "type": "function"
    },
    {
      "inputs": [
        {
          "internalType": "uint256",
          "name": "_tokenId",
          "type": "uint256"
        },
        {
          "internalType": "address",
          "name": "_withToken",
          "type": "address"
        }
      ],
      "name": "sellNft",
      "outputs": [],
      "stateMutability": "nonpayable",
      "type": "function"
    },
    {
      "inputs": [
        {
          "internalType": "bytes4",
          "name": "interfaceId",
          "type": "bytes4"
        }
      ],
      "name": "supportsInterface",
      "outputs": [
        {
          "internalType": "bool",
          "name": "",
          "type": "bool"
        }
      ],
      "stateMutability": "view",
      "type": "function"
    },
    {
      "inputs": [
        {
          "internalType": "address",
          "name": "_fromToken",
          "type": "address"
        },
        {
          "internalType": "address",
          "name": "_toToken",
          "type": "address"
        },
        {
          "internalType": "uint256",
          "name": "_value",
          "type": "uint256"
        }
      ],
      "name": "swap",
      "outputs": [],
      "stateMutability": "nonpayable",
      "type": "function"
    }
  ],
  "bytecode": "0x60806040523480156200001157600080fd5b506040516200296b3803806200296b8339818101604052810190620000379190620007b2565b826000806101000a81548173ffffffffffffffffffffffffffffffffffffffff021916908373ffffffffffffffffffffffffffffffffffffffff16021790555081600160006101000a81548173ffffffffffffffffffffffffffffffffffffffff021916908373ffffffffffffffffffffffffffffffffffffffff16021790555080600260006101000a81548173ffffffffffffffffffffffffffffffffffffffff021916908373ffffffffffffffffffffffffffffffffffffffff160217905550600160009054906101000a900473ffffffffffffffffffffffffffffffffffffffff1673ffffffffffffffffffffffffffffffffffffffff1663a0712d68600160009054906101000a900473ffffffffffffffffffffffffffffffffffffffff1673ffffffffffffffffffffffffffffffffffffffff1663313ce5676040518163ffffffff1660e01b815260040160206040518083038186803b158015620001a057600080fd5b505afa158015620001b5573d6000803e3d6000fd5b505050506040513d601f19601f82011682018060405250810190620001db919062000834565b600a620001e99190620008e9565b6064620001f7919062000a26565b6040518263ffffffff1660e01b815260040162000215919062000871565b602060405180830381600087803b1580156200023057600080fd5b505af115801562000245573d6000803e3d6000fd5b505050506040513d601f19601f820116820180604052508101906200026b919062000808565b506200027f8383836200028860201b60201c565b50505062000b5c565b604051806040016040528060036fffffffffffffffffffffffffffffffff16815260200160646fffffffffffffffffffffffffffffffff16815250600360008573ffffffffffffffffffffffffffffffffffffffff1673ffffffffffffffffffffffffffffffffffffffff16815260200190815260200160002060008473ffffffffffffffffffffffffffffffffffffffff1673ffffffffffffffffffffffffffffffffffffffff16815260200190815260200160002060008201518160000160006101000a8154816fffffffffffffffffffffffffffffffff02191690836fffffffffffffffffffffffffffffffff16021790555060208201518160000160106101000a8154816fffffffffffffffffffffffffffffffff02191690836fffffffffffffffffffffffffffffffff160217905550905050604051806040016040528060646fffffffffffffffffffffffffffffffff16815260200160036fffffffffffffffffffffffffffffffff16815250600360008473ffffffffffffffffffffffffffffffffffffffff1673ffffffffffffffffffffffffffffffffffffffff16815260200190815260200160002060008573ffffffffffffffffffffffffffffffffffffffff1673ffffffffffffffffffffffffffffffffffffffff16815260200190815260200160002060008201518160000160006101000a8154816fffffffffffffffffffffffffffffffff02191690836fffffffffffffffffffffffffffffffff16021790555060208201518160000160106101000a8154816fffffffffffffffffffffffffffffffff02191690836fffffffffffffffffffffffffffffffff160217905550905050604051806040016040528060c86fffffffffffffffffffffffffffffffff16815260200160016fffffffffffffffffffffffffffffffff16815250600360008573ffffffffffffffffffffffffffffffffffffffff1673ffffffffffffffffffffffffffffffffffffffff16815260200190815260200160002060008373ffffffffffffffffffffffffffffffffffffffff1673ffffffffffffffffffffffffffffffffffffffff16815260200190815260200160002060008201518160000160006101000a8154816fffffffffffffffffffffffffffffffff02191690836fffffffffffffffffffffffffffffffff16021790555060208201518160000160106101000a8154816fffffffffffffffffffffffffffffffff02191690836fffffffffffffffffffffffffffffffff1602179055509050506040518060400160405280600f6fffffffffffffffffffffffffffffffff168152602001600a6fffffffffffffffffffffffffffffffff16815250600360008473ffffffffffffffffffffffffffffffffffffffff1673ffffffffffffffffffffffffffffffffffffffff16815260200190815260200160002060008373ffffffffffffffffffffffffffffffffffffffff1673ffffffffffffffffffffffffffffffffffffffff16815260200190815260200160002060008201518160000160006101000a8154816fffffffffffffffffffffffffffffffff02191690836fffffffffffffffffffffffffffffffff16021790555060208201518160000160106101000a8154816fffffffffffffffffffffffffffffffff02191690836fffffffffffffffffffffffffffffffff160217905550905050505050565b6000815190506200077e8162000b0e565b92915050565b600081519050620007958162000b28565b92915050565b600081519050620007ac8162000b42565b92915050565b600080600060608486031215620007c857600080fd5b6000620007d8868287016200076d565b9350506020620007eb868287016200076d565b9250506040620007fe868287016200076d565b9150509250925092565b6000602082840312156200081b57600080fd5b60006200082b8482850162000784565b91505092915050565b6000602082840312156200084757600080fd5b600062000857848285016200079b565b91505092915050565b6200086b8162000abb565b82525050565b600060208201905062000888600083018462000860565b92915050565b6000808291508390505b6001851115620008e057808604811115620008b857620008b762000ad2565b5b6001851615620008c85780820291505b8081029050620008d88562000b01565b945062000898565b94509492505050565b6000620008f68262000abb565b9150620009038362000ac5565b9250620009327fffffffffffffffffffffffffffffffffffffffffffffffffffffffffffffffff84846200093a565b905092915050565b6000826200094c576001905062000a1f565b816200095c576000905062000a1f565b81600181146200097557600281146200098057620009b6565b600191505062000a1f565b60ff84111562000995576200099462000ad2565b5b8360020a915084821115620009af57620009ae62000ad2565b5b5062000a1f565b5060208310610133831016604e8410600b8410161715620009f05782820a905083811115620009ea57620009e962000ad2565b5b62000a1f565b620009ff84848460016200088e565b9250905081840481111562000a195762000a1862000ad2565b5b81810290505b9392505050565b600062000a338262000abb565b915062000a408362000abb565b9250817fffffffffffffffffffffffffffffffffffffffffffffffffffffffffffffffff048311821515161562000a7c5762000a7b62000ad2565b5b828202905092915050565b600062000a948262000a9b565b9050919050565b600073ffffffffffffffffffffffffffffffffffffffff82169050919050565b6000819050919050565b600060ff82169050919050565b7f4e487b7100000000000000000000000000000000000000000000000000000000600052601160045260246000fd5b60008160011c9050919050565b62000b198162000a87565b811462000b2557600080fd5b50565b62000b338162000abb565b811462000b3f57600080fd5b50565b62000b4d8162000ac5565b811462000b5957600080fd5b50565b611dff8062000b6c6000396000f3fe608060405234801561001057600080fd5b50600436106100935760003560e01c8063bc197c8111610066578063bc197c8114610133578063bc3ad14514610163578063df791e501461017f578063f23a6e611461019b578063f4e5decc146101cb57610093565b806301ffc9a7146100985780630f876dc6146100c857806343323096146100e457806350e3004214610102575b600080fd5b6100b260048036038101906100ad919061158c565b6101e9565b6040516100bf91906117d9565b60405180910390f35b6100e260048036038101906100dd91906115de565b610263565b005b6100ec61047f565b6040516100f99190611878565b60405180910390f35b61011c6004803603810190610117919061138a565b610531565b60405161012a92919061184f565b60405180910390f35b61014d600480360381019061014891906113c6565b61059a565b60405161015a91906117f4565b60405180910390f35b61017d600480360381019061017891906115de565b6105af565b005b61019960048036038101906101949190611485565b6107cd565b005b6101b560048036038101906101b091906114d4565b610ec2565b6040516101c291906117f4565b60405180910390f35b6101d3610ed7565b6040516101e09190611878565b60405180910390f35b60007f4e2312e0000000000000000000000000000000000000000000000000000000007bffffffffffffffffffffffffffffffffffffffffffffffffffffffff1916827bffffffffffffffffffffffffffffffffffffffffffffffffffffffff1916148061025c575061025b82610f88565b5b9050919050565b8060008054906101000a900473ffffffffffffffffffffffffffffffffffffffff1673ffffffffffffffffffffffffffffffffffffffff168173ffffffffffffffffffffffffffffffffffffffff16148061030b5750600160009054906101000a900473ffffffffffffffffffffffffffffffffffffffff1673ffffffffffffffffffffffffffffffffffffffff168173ffffffffffffffffffffffffffffffffffffffff16145b61034a576040517f08c379a00000000000000000000000000000000000000000000000000000000081526004016103419061182f565b60405180910390fd5b600061035583610ff2565b9050600260009054906101000a900473ffffffffffffffffffffffffffffffffffffffff1673ffffffffffffffffffffffffffffffffffffffff1663f242432a33308760016040518563ffffffff1660e01b81526004016103b99493929190611758565b600060405180830381600087803b1580156103d357600080fd5b505af11580156103e7573d6000803e3d6000fd5b505050508273ffffffffffffffffffffffffffffffffffffffff1663a9059cbb33836040518363ffffffff1660e01b81526004016104269291906117b0565b602060405180830381600087803b15801561044057600080fd5b505af1158015610454573d6000803e3d6000fd5b505050506040513d601f19601f820116820180604052508101906104789190611563565b5050505050565b6000600160009054906101000a900473ffffffffffffffffffffffffffffffffffffffff1673ffffffffffffffffffffffffffffffffffffffff166370a08231306040518263ffffffff1660e01b81526004016104dc9190611706565b60206040518083038186803b1580156104f457600080fd5b505afa158015610508573d6000803e3d6000fd5b505050506040513d601f19601f8201168201806040525081019061052c91906115b5565b905090565b6003602052816000526040600020602052806000526040600020600091509150508060000160009054906101000a90046fffffffffffffffffffffffffffffffff16908060000160109054906101000a90046fffffffffffffffffffffffffffffffff16905082565b600063bc197c8160e01b905095945050505050565b8060008054906101000a900473ffffffffffffffffffffffffffffffffffffffff1673ffffffffffffffffffffffffffffffffffffffff168173ffffffffffffffffffffffffffffffffffffffff1614806106575750600160009054906101000a900473ffffffffffffffffffffffffffffffffffffffff1673ffffffffffffffffffffffffffffffffffffffff168173ffffffffffffffffffffffffffffffffffffffff16145b610696576040517f08c379a000000000000000000000000000000000000000000000000000000000815260040161068d9061182f565b60405180910390fd5b60006106a183610ff2565b90508273ffffffffffffffffffffffffffffffffffffffff166323b872dd3330846040518463ffffffff1660e01b81526004016106e093929190611721565b602060405180830381600087803b1580156106fa57600080fd5b505af115801561070e573d6000803e3d6000fd5b505050506040513d601f19601f820116820180604052508101906107329190611563565b50600260009054906101000a900473ffffffffffffffffffffffffffffffffffffffff1673ffffffffffffffffffffffffffffffffffffffff1663f242432a30338760016040518563ffffffff1660e01b81526004016107959493929190611758565b600060405180830381600087803b1580156107af57600080fd5b505af11580156107c3573d6000803e3d6000fd5b5050505050505050565b8260008054906101000a900473ffffffffffffffffffffffffffffffffffffffff1673ffffffffffffffffffffffffffffffffffffffff168173ffffffffffffffffffffffffffffffffffffffff1614806108755750600160009054906101000a900473ffffffffffffffffffffffffffffffffffffffff1673ffffffffffffffffffffffffffffffffffffffff168173ffffffffffffffffffffffffffffffffffffffff16145b6108b4576040517f08c379a00000000000000000000000000000000000000000000000000000000081526004016108ab9061182f565b60405180910390fd5b8260008054906101000a900473ffffffffffffffffffffffffffffffffffffffff1673ffffffffffffffffffffffffffffffffffffffff168173ffffffffffffffffffffffffffffffffffffffff16148061095c5750600160009054906101000a900473ffffffffffffffffffffffffffffffffffffffff1673ffffffffffffffffffffffffffffffffffffffff168173ffffffffffffffffffffffffffffffffffffffff16145b61099b576040517f08c379a00000000000000000000000000000000000000000000000000000000081526004016109929061182f565b60405180910390fd5b6000600360008773ffffffffffffffffffffffffffffffffffffffff1673ffffffffffffffffffffffffffffffffffffffff16815260200190815260200160002060008673ffffffffffffffffffffffffffffffffffffffff1673ffffffffffffffffffffffffffffffffffffffff1681526020019081526020016000206040518060400160405290816000820160009054906101000a90046fffffffffffffffffffffffffffffffff166fffffffffffffffffffffffffffffffff166fffffffffffffffffffffffffffffffff1681526020016000820160109054906101000a90046fffffffffffffffffffffffffffffffff166fffffffffffffffffffffffffffffffff166fffffffffffffffffffffffffffffffff16815250509050600081602001516fffffffffffffffffffffffffffffffff1682600001516fffffffffffffffffffffffffffffffff1686610af59190611ad9565b610aff9190611937565b90506000600160009054906101000a900473ffffffffffffffffffffffffffffffffffffffff1673ffffffffffffffffffffffffffffffffffffffff1663313ce5676040518163ffffffff1660e01b815260040160206040518083038186803b158015610b6b57600080fd5b505afa158015610b7f573d6000803e3d6000fd5b505050506040513d601f19601f82011682018060405250810190610ba3919061161a565b60008054906101000a900473ffffffffffffffffffffffffffffffffffffffff1673ffffffffffffffffffffffffffffffffffffffff1663313ce5676040518163ffffffff1660e01b815260040160206040518083038186803b158015610c0957600080fd5b505afa158015610c1d573d6000803e3d6000fd5b505050506040513d601f19601f82011682018060405250810190610c41919061161a565b610c4b9190611b33565b600a610c5791906119bb565b905060008054906101000a900473ffffffffffffffffffffffffffffffffffffffff1673ffffffffffffffffffffffffffffffffffffffff168873ffffffffffffffffffffffffffffffffffffffff161415610cc0578082610cb99190611937565b9150610ccf565b8082610ccc9190611ad9565b91505b818773ffffffffffffffffffffffffffffffffffffffff166370a08231306040518263ffffffff1660e01b8152600401610d099190611706565b60206040518083038186803b158015610d2157600080fd5b505afa158015610d35573d6000803e3d6000fd5b505050506040513d601f19601f82011682018060405250810190610d5991906115b5565b1015610d9a576040517f08c379a0000000000000000000000000000000000000000000000000000000008152600401610d919061180f565b60405180910390fd5b8773ffffffffffffffffffffffffffffffffffffffff166323b872dd3330896040518463ffffffff1660e01b8152600401610dd793929190611721565b602060405180830381600087803b158015610df157600080fd5b505af1158015610e05573d6000803e3d6000fd5b505050506040513d601f19601f82011682018060405250810190610e299190611563565b508673ffffffffffffffffffffffffffffffffffffffff1663a9059cbb33846040518363ffffffff1660e01b8152600401610e659291906117b0565b602060405180830381600087803b158015610e7f57600080fd5b505af1158015610e93573d6000803e3d6000fd5b505050506040513d601f19601f82011682018060405250810190610eb79190611563565b505050505050505050565b600063f23a6e6160e01b905095945050505050565b60008060009054906101000a900473ffffffffffffffffffffffffffffffffffffffff1673ffffffffffffffffffffffffffffffffffffffff166370a08231306040518263ffffffff1660e01b8152600401610f339190611706565b60206040518083038186803b158015610f4b57600080fd5b505afa158015610f5f573d6000803e3d6000fd5b505050506040513d601f19601f82011682018060405250810190610f8391906115b5565b905090565b60007f01ffc9a7000000000000000000000000000000000000000000000000000000007bffffffffffffffffffffffffffffffffffffffffffffffffffffffff1916827bffffffffffffffffffffffffffffffffffffffffffffffffffffffff1916149050919050565b600080600360008473ffffffffffffffffffffffffffffffffffffffff1673ffffffffffffffffffffffffffffffffffffffff1681526020019081526020016000206000600260009054906101000a900473ffffffffffffffffffffffffffffffffffffffff1673ffffffffffffffffffffffffffffffffffffffff1673ffffffffffffffffffffffffffffffffffffffff1681526020019081526020016000206040518060400160405290816000820160009054906101000a90046fffffffffffffffffffffffffffffffff166fffffffffffffffffffffffffffffffff166fffffffffffffffffffffffffffffffff1681526020016000820160109054906101000a90046fffffffffffffffffffffffffffffffff166fffffffffffffffffffffffffffffffff166fffffffffffffffffffffffffffffffff1681525050905060008373ffffffffffffffffffffffffffffffffffffffff1663313ce5676040518163ffffffff1660e01b815260040160206040518083038186803b15801561117c57600080fd5b505afa158015611190573d6000803e3d6000fd5b505050506040513d601f19601f820116820180604052508101906111b4919061161a565b600a6111c091906119bb565b905081602001516fffffffffffffffffffffffffffffffff168183600001516fffffffffffffffffffffffffffffffff166111fb9190611ad9565b6112059190611937565b92505050919050565b600061122161121c846118b8565b611893565b9050808382526020820190508285602086028201111561124057600080fd5b60005b858110156112705781611256888261134b565b845260208401935060208301925050600181019050611243565b5050509392505050565b600061128d611288846118e4565b611893565b9050828152602081018484840111156112a557600080fd5b6112b0848285611c16565b509392505050565b6000813590506112c781611d56565b92915050565b600082601f8301126112de57600080fd5b81356112ee84826020860161120e565b91505092915050565b60008151905061130681611d6d565b92915050565b60008135905061131b81611d84565b92915050565b600082601f83011261133257600080fd5b813561134284826020860161127a565b91505092915050565b60008135905061135a81611d9b565b92915050565b60008151905061136f81611d9b565b92915050565b60008151905061138481611db2565b92915050565b6000806040838503121561139d57600080fd5b60006113ab858286016112b8565b92505060206113bc858286016112b8565b9150509250929050565b600080600080600060a086880312156113de57600080fd5b60006113ec888289016112b8565b95505060206113fd888289016112b8565b945050604086013567ffffffffffffffff81111561141a57600080fd5b611426888289016112cd565b935050606086013567ffffffffffffffff81111561144357600080fd5b61144f888289016112cd565b925050608086013567ffffffffffffffff81111561146c57600080fd5b61147888828901611321565b9150509295509295909350565b60008060006060848603121561149a57600080fd5b60006114a8868287016112b8565b93505060206114b9868287016112b8565b92505060406114ca8682870161134b565b9150509250925092565b600080600080600060a086880312156114ec57600080fd5b60006114fa888289016112b8565b955050602061150b888289016112b8565b945050604061151c8882890161134b565b935050606061152d8882890161134b565b925050608086013567ffffffffffffffff81111561154a57600080fd5b61155688828901611321565b9150509295509295909350565b60006020828403121561157557600080fd5b6000611583848285016112f7565b91505092915050565b60006020828403121561159e57600080fd5b60006115ac8482850161130c565b91505092915050565b6000602082840312156115c757600080fd5b60006115d584828501611360565b91505092915050565b600080604083850312156115f157600080fd5b60006115ff8582860161134b565b9250506020611610858286016112b8565b9150509250929050565b60006020828403121561162c57600080fd5b600061163a84828501611375565b91505092915050565b61164c81611b67565b82525050565b61165b81611b79565b82525050565b61166a81611b85565b82525050565b61167981611c04565b82525050565b600061168c600083611915565b915061169782611d01565b600082019050919050565b60006116af601983611926565b91506116ba82611d04565b602082019050919050565b60006116d2600c83611926565b91506116dd82611d2d565b602082019050919050565b6116f181611bb1565b82525050565b61170081611bed565b82525050565b600060208201905061171b6000830184611643565b92915050565b60006060820190506117366000830186611643565b6117436020830185611643565b61175060408301846116f7565b949350505050565b600060a08201905061176d6000830187611643565b61177a6020830186611643565b61178760408301856116f7565b6117946060830184611670565b81810360808301526117a58161167f565b905095945050505050565b60006040820190506117c56000830185611643565b6117d260208301846116f7565b9392505050565b60006020820190506117ee6000830184611652565b92915050565b60006020820190506118096000830184611661565b92915050565b60006020820190508181036000830152611828816116a2565b9050919050565b60006020820190508181036000830152611848816116c5565b9050919050565b600060408201905061186460008301856116e8565b61187160208301846116e8565b9392505050565b600060208201905061188d60008301846116f7565b92915050565b600061189d6118ae565b90506118a98282611c25565b919050565b6000604051905090565b600067ffffffffffffffff8211156118d3576118d2611cb4565b5b602082029050602081019050919050565b600067ffffffffffffffff8211156118ff576118fe611cb4565b5b61190882611ce3565b9050602081019050919050565b600082825260208201905092915050565b600082825260208201905092915050565b600061194282611bed565b915061194d83611bed565b92508261195d5761195c611c85565b5b828204905092915050565b6000808291508390505b60018511156119b25780860481111561198e5761198d611c56565b5b600185161561199d5780820291505b80810290506119ab85611cf4565b9450611972565b94509492505050565b60006119c682611bed565b91506119d183611bf7565b92506119fe7fffffffffffffffffffffffffffffffffffffffffffffffffffffffffffffffff8484611a06565b905092915050565b600082611a165760019050611ad2565b81611a245760009050611ad2565b8160018114611a3a5760028114611a4457611a73565b6001915050611ad2565b60ff841115611a5657611a55611c56565b5b8360020a915084821115611a6d57611a6c611c56565b5b50611ad2565b5060208310610133831016604e8410600b8410161715611aa85782820a905083811115611aa357611aa2611c56565b5b611ad2565b611ab58484846001611968565b92509050818404811115611acc57611acb611c56565b5b81810290505b9392505050565b6000611ae482611bed565b9150611aef83611bed565b9250817fffffffffffffffffffffffffffffffffffffffffffffffffffffffffffffffff0483118215151615611b2857611b27611c56565b5b828202905092915050565b6000611b3e82611bf7565b9150611b4983611bf7565b925082821015611b5c57611b5b611c56565b5b828203905092915050565b6000611b7282611bcd565b9050919050565b60008115159050919050565b60007fffffffff0000000000000000000000000000000000000000000000000000000082169050919050565b60006fffffffffffffffffffffffffffffffff82169050919050565b600073ffffffffffffffffffffffffffffffffffffffff82169050919050565b6000819050919050565b600060ff82169050919050565b6000611c0f82611bed565b9050919050565b82818337600083830152505050565b611c2e82611ce3565b810181811067ffffffffffffffff82111715611c4d57611c4c611cb4565b5b80604052505050565b7f4e487b7100000000000000000000000000000000000000000000000000000000600052601160045260246000fd5b7f4e487b7100000000000000000000000000000000000000000000000000000000600052601260045260246000fd5b7f4e487b7100000000000000000000000000000000000000000000000000000000600052604160045260246000fd5b6000601f19601f8301169050919050565b60008160011c9050919050565b50565b7f4e6f7420656e6f75676820746f6b656e7320746f207377617000000000000000600082015250565b7f4e6f74206d7920746f6b656e0000000000000000000000000000000000000000600082015250565b611d5f81611b67565b8114611d6a57600080fd5b50565b611d7681611b79565b8114611d8157600080fd5b50565b611d8d81611b85565b8114611d9857600080fd5b50565b611da481611bed565b8114611daf57600080fd5b50565b611dbb81611bf7565b8114611dc657600080fd5b5056fea264697066735822122066e86038d3f30ffa16b73b04759c828942f0c7c1f83e3d01dbcb55fc38e3dbdc64736f6c63430008040033",
  "linkReferences": {},
  "deployedLinkReferences": {}
}